:100000000C94FE000C9424010C9424010C94240103
:100010000C9424010C9424010C9424010C942401CC
:100020000C9424010C9424010C9424010C942401BC
:100030000C9424010C9424010C9424010C942401AC
:100040000C9424010C9424010C9424010C9424019C
:100050000C9424010C9424010C9424010C9424018C
:100060000C9424010C9424010C9424010C9424017C
:100070000C9424010C9424010C9424010C9424016C
:100080000C9424010C9424010C9424010C9424015C
:100090000C9424010C9424010C9424010C9424014C
:1000A0000C9424010C9424010C9424010C9424013C
:1000B0000C9424010C9424010C9424010C9424012C
:1000C0000C9424010C9424010C9424010C9424011C
:1000D0000C9424010C9424010C9424010C9424010C
:1000E0000C9424010C9424010C9424010C942401FC
:1000F0000C9424010C9424010C9424010C942401EC
:100100000C9424010C9424010C9424010C942401DB
:100110000C9424010C9424010C9424010C942401CB
:100120000C9424010C9424010C9424010C942401BB
:100130000C9424010C9424010C9424010C942401AB
:100140000C9424010C9424010C9424010C9424019B
:100150000C9424010C9424010C9424010C9424018B
:100160000C9424010C9424010C9424010C9424017B
:100170000C9424010C9424010C9424010C9424016B
:100180000C9424010C9424010C9424010C9424015B
:100190000C9424010C9424010C9424010C9424014B
:1001A0000C9424010C9424010C9424010C9424013B
:1001B0000C9424010C9424010C9424010C9424012B
:1001C0000C9424010C9424010C9424010C9424011B
:1001D0000C9424010C9424010C9424010C9424010B
:1001E0000C9424010C9424010C9424010C942401FB
:1001F0000C9424010C9424010C94240111241FBE9E
:10020000CFEFCDBFDFE3DEBF00E00CBF18BE19BEED
:100210001ABE1BBE10E2A0E0B0E2EAEEFEE000E093
:100220000BBF02C007900D92AE31B107D9F71BBECC
:1002300020E2AEE1B0E201C01D92A432B207E1F7C4
:100240000E94A4050C9473070C940000AF92BF9217
:10025000CF92DF92EF92FF920F931F93CF93DF9392
:100260005C018B01C0E0D0E0C12CD12C7601CA1515
:10027000DB05A4F4F80161917191819191918F0155
:100280009B01AC010E948C069B01AC01C701B60129
:100290000E94D7056B017C012196E9CFC701B60109
:1002A000DF91CF911F910F91FF90EF90DF90CF9052
:1002B000BF90AF900C94F3068F929F92AF92BF9233
:1002C000CF92DF92EF92FF920F931F93CF93DF9322
:1002D0006C01EB018A01E12CF12C812C912C540151
:1002E000EC14FD04C4F46991799189919991F80114
:1002F00021913191419151918F010E948C069B0176
:10030000AC01C501B4010E94D7054B015C01FFEFB0
:10031000EF1AFF0AE5CFC501B401DF91CF911F911C
:100320000F91FF90EF90DF90CF90BF90AF909F9094
:100330008F9008958F929F92AF92BF92CF92DF924B
:10034000EF92FF920F931F93CF93DF936C014A01BB
:100350005B01E901780100E010E00C151D058CF44B
:100360002991399149915991C501B4010E948C0696
:10037000F70161937193819391937F010F5F1F4FF9
:10038000ECCFDF91CF911F910F91FF90EF90DF9015
:10039000CF90BF90AF909F908F900895AF92BF92F3
:1003A000CF92DF92EF92FF920F931F93CF93DF9341
:1003B0005C01EB018A017901C12CD12CCA14DB0448
:1003C000B4F46991799189919991F80121913191D0
:1003D000419151918F010E94D705F701619371936B
:1003E000819391937F01FFEFCF1ADF0AE7CFDF916F
:1003F000CF911F910F91FF90EF90DF90CF90BF9022
:10040000AF900895AF92BF92CF92DF92EF92FF929A
:100410000F931F93CF93DF935C01EB018A01790166
:10042000C12CD12CCA14DB04B4F46991799189915F
:100430009991F80121913191419151918F010E943F
:10044000D605F70161937193819391937F01FFEF3B
:10045000CF1ADF0AE7CFDF91CF911F910F91FF9065
:10046000EF90DF90CF90BF90AF9008952F923F9282
:100470004F925F926F927F928F929F92AF92BF92B4
:10048000CF92DF92EF92FF920F931F93CF93DF9360
:10049000CDB7DEB72A97CDBFDEBF89879A878B019C
:1004A0001A01DC011896CD90DD90ED90FC901B9721
:1004B000DB011C968D919D910D90BC91A02D89839F
:1004C0009A83AB83BC83E985FA8584849584A6846A
:1004D000B784DB0118964D905D906D907C901B97D2
:1004E00029813A814B815C81C701B6010E948C064B
:1004F0006D837E838F839887A3019201C501B40128
:100500000E948C069B01AC016D817E818F81988554
:100510000E94D605F1016083718382839383D801A1
:1005200014962D913D914D915C911797C501B401A1
:100530000E948C064B015C01E985FA852481358196
:100540004681578169817A818B819C810E948C06CA
:100550009B01AC01C501B4010E94D605D1011496DE
:100560006D937D938D939C931797E985FA852481EC
:10057000358146815781C301B2010E948C064B012F
:100580005C01D80114962D913D914D915C91179786
:10059000C701B6010E948C069B01AC01C501B401E4
:1005A0000E94D605F10160877187828793872A961A
:1005B000CDBFDEBFDF91CF911F910F91FF90EF90E4
:1005C000DF90CF90BF90AF909F908F907F906F9073
:1005D0005F904F903F902F9008952F923F924F92AF
:1005E0005F926F927F928F929F92AF92BF92CF92C3
:1005F000DF92EF92FF920F931F93CF93DF9300D080
:1006000000D0CDB7DEB76C011B013A0149019C0156
:10061000220F331F220F331F2B833C831D821E8228
:10062000E12CF12CEC14FD04C4F5AD80BE80A80CC7
:10063000B91C4D805E80460C571CED81FE81E20D99
:10064000F31DE983FA8300E010E00C151D05CCF4DE
:10065000E981FA816191719181919191E983FA83A4
:10066000F20121913191419151912F010E94D705C1
:10067000F50161937193819391935F010F5F1F4F18
:10068000E4CFFFEFEF1AFF0A2D813E818B819C8121
:10069000280F391F2D833E83C5CF2696CDBFDEBFE1
:1006A000DF91CF911F910F91FF90EF90DF90CF904E
:1006B000BF90AF909F908F907F906F905F904F9082
:1006C0003F902F9008952F923F924F925F926F929A
:1006D0007F928F929F92AF92BF92CF92DF92EF92D2
:1006E000FF920F931F93CF93DF9300D000D0CDB72D
:1006F000DEB76C011B013A0149019C01220F331F37
:10070000220F331F2B833C831D821E82E12CF12C90
:10071000EC14FD04C4F5AD80BE80A80CB91C4D805E
:100720005E80460C571CED81FE81E20DF31DE983CE
:10073000FA8300E010E00C151D05CCF4E981FA8184
:100740006191719181919191E983FA83F2012191F3
:100750003191419151912F010E94D605F50161938C
:100760007193819391935F010F5F1F4FE4CFFFEF70
:10077000EF1AFF0A2D813E818B819C81280F391F42
:100780002D833E83C5CF2696CDBFDEBFDF91CF91AF
:100790001F910F91FF90EF90DF90CF90BF90AF909F
:1007A0009F908F907F906F905F904F903F902F9091
:1007B00008952F923F924F925F926F927F928F9205
:1007C0009F92AF92BF92CF92DF92EF92FF920F93E0
:1007D0001F93CF93DF9300D000D0CDB7DEB77C015D
:1007E0002A013B0119019C01220F331F220F331FE5
:1007F0002B833C831D821E82A12CB12CAE14BF041E
:100800008CF58D809E80800E911E2D813E81220D63
:10081000331D29833A83C12CD12CCE14DF04B4F4C8
:10082000E981FA812191319141915191E983FA83D2
:10083000C301B2010E948C06F4016193719381930C
:1008400091934F01FFEFCF1ADF0AE7CF2FEFA21AE4
:10085000B20A8D819E81EB81FC818E0F9F1F8D835B
:100860009E83CCCF2696CDBFDEBFDF91CF911F9167
:100870000F91FF90EF90DF90CF90BF90AF909F903F
:100880008F907F906F905F904F903F902F90089542
:10089000AF92BF92CF92DF92EF92FF920F931F938E
:1008A000CF93DF93EC01CC0FDD1FCC0FDD1F9A013E
:1008B0006C1B7D0BA0E0B0E0A817B9070CF589010F
:1008C000A12CB12C40E050E0AC0EBD1E48175907DA
:1008D0008CF47B01EA0CFB1CF701C080D180E28024
:1008E000F380F801C192D192E192F1928F014F5FB2
:1008F0005F4FEACF11962C0F3D1F6C5F7F4FDCCF0F
:10090000DF91CF911F910F91FF90EF90DF90CF90EB
:10091000BF90AF9008952F923F924F925F926F9247
:100920007F928F929F92AF92BF92CF92DF92EF927F
:10093000FF920F931F93CF93DF93CDB7DEB72A9724
:10094000CDBFDEBF7C016A018C01000F111F000FBB
:10095000111F290169877A87612C712CC01AD10A6D
:100960006E147F040CF054C04D825E82212C312C19
:1009700019821A8289819A818E159F05ECF5A985C5
:10098000BA85AB83BC83812C912CA12CB12C60E067
:1009900070E0CB01F601E20DF31DEF83F887800EC6
:1009A000911EAE14BF04B4F4AB81BC816D917D91F6
:1009B0008D919D91AB83BC83EF81F885E80DF91D86
:1009C00020813181428153810E948C06BFEFAB1A96
:1009D000BB0AE5CFED81FE81619371938193919381
:1009E000ED83FE8329813A812F5F3F4F29833A832C
:1009F00034E0230E311CBECFFFEF6F1A7F0A400E8A
:100A0000511E29853A85200F311F29873A87A8CFA3
:100A10002A96CDBFDEBFDF91CF911F910F91FF903E
:100A2000EF90DF90CF90BF90AF909F908F907F908E
:100A30006F905F904F903F902F9008952F923F922C
:100A40004F925F926F927F928F929F92AF92BF92DE
:100A5000CF92DF92EF92FF920F931F93CF93DF938A
:100A6000CDB7DEB72A97CDBFDEBF5C014F83588775
:100A70004C01880C991C880C991C29833A83212CE1
:100A8000312CC12CD12CCB018819990989879A87DF
:100A9000CA14DB040CF042C09F819B83A885AC8301
:100AA000E12CF12C00E010E0412C512C3201E985C1
:100AB000FA85E20DF31DED83FE83E80CF91C0A159F
:100AC0001B05ECF4AB81BC816D917D918D919D9165
:100AD000AB83BC83ED81FE81EE0DFF1D2081318152
:100AE000428153810E948C069B01AC01C301B2017B
:100AF0000E94D7052B013C010F5F1F4FDECFE9811C
:100B0000FA814192519261927192E983FA83FFEFE7
:100B1000CF1ADF0A84E0280E311CBACF2A96CDBF47
:100B2000DEBFDF91CF911F910F91FF90EF90DF908B
:100B3000CF90BF90AF909F908F907F906F905F907D
:100B40004F903F902F900895CF93DF93CDB7DEB7AE
:100B50006897CDBFDEBF88E0E0E0F0E2DE015196AD
:100B600001900D928A95E1F788E0E8E0F0E2DE017D
:100B7000199601900D928A95E1F79E012F5F3F4FE4
:100B8000AE01475F5F4FBE016F5E7F4F82E090E036
:100B90000E94CE0180E190E20E94460780E090E052
:100BA0006896CDBFDEBFDF91CF9108955058BB2727
:100BB000AA270ED077C068D030F06DD020F031F485
:100BC0009F3F11F41EF45DC00EF4E095E7FB53C0A7
:100BD000E92F79D080F3BA17620773078407950766
:100BE00018F071F49EF591C00EF4E0950B2EBA2F1B
:100BF000A02D0B01B90190010C01CA01A001112423
:100C0000FF27591B99F0593F50F4503E68F11A16CE
:100C1000F040A22F232F342F4427585FF3CF46955F
:100C200037952795A795F0405395C9F77EF41F1681
:100C3000BA0B620B730B840BBAF09150A1F0FF0F4B
:100C4000BB1F661F771F881FC2F70EC0BA0F621F37
:100C5000731F841F48F4879577956795B795F79527
:100C60009E3F08F0B3CF9395880F08F09927EE0FB9
:100C700097958795089597F99F6780E870E060E001
:100C800008959FEF80EC089500240A941616170625
:100C900018060906089500240A941216130614066D
:100CA00005060895092E0394000C11F4882352F0D0
:100CB000BB0F40F4BF2B11F460FF04C06F5F7F4F88
:100CC0008F4F9F4F089557FD9058440F551F59F06F
:100CD0005F3F71F04795880F97FB991F61F09F3F29
:100CE00079F087950895121613061406551FF2CF52
:100CF0004695F1DF08C0161617061806991FF1CFA2
:100D000086957105610508940895E894BB276627C8
:100D10007727CB0197F908950BD0C4CFB5DF28F022
:100D2000BADF18F0952309F0A6CFABCF1124EECF90
:100D3000CADFA0F3959FD1F3950F50E0551F629F36
:100D4000F001729FBB27F00DB11D639FAA27F00D24
:100D5000B11DAA1F649F6627B00DA11D661F829F4B
:100D60002227B00DA11D621F739FB00DA11D621F30
:100D7000839FA00D611D221F749F3327A00D611D4D
:100D8000231F849F600D211D822F762F6A2F11242F
:100D90009F5750408AF0E1F088234AF0EE0FFF1F82
:100DA000BB1F661F771F881F91505040A9F79E3FB9
:100DB000510570F060CFAACF5F3FECF3983EDCF3B3
:100DC000869577956795B795F795E7959F5FC1F7F6
:100DD000FE2B880F911D9695879597F9089511F42C
:100DE0000EF44FCF3EC077DFD0F39923D9F3CEF383
:100DF0009F57550B87FF43D00024A0E640EA90019F
:100E000080585695979528F4805C660F771F881F49
:100E100020F026173707480730F4621B730B840B4A
:100E2000202931294A2BA69517940794202531258E
:100E30004A2758F7660F771F881F20F026173707B5
:100E4000480730F4620B730B840B200D311D411DDC
:100E5000A09581F7B901842F9158880F96958795B1
:100E600008959F3F31F0915020F4879577956795CD
:100E7000B795880F911D9695879597F9089591508C
:100E80005040660F771F881FD2F708950F931F9366
:100E9000CF93DF93E0912020F0912120238121FF47
:100EA0001BC0EC0100E010E089916091202070915E
:100EB0002120DB011896ED91FC911997882331F0E0
:100EC0001995892B89F30FEF1FEFEECF8AE0199563
:100ED000892B11F4C80102C08FEF9FEFDF91CF91F2
:0A0EE0001F910F910895F894FFCFC1
:100EEA000000803F000000400000404000008040B9
:0E0EFA0048656C6C6F2C20576F726C64210081
:00000001FF
