:100000000C9456010C947C010C947C010C947C01A2
:100010000C947C010C947C010C947C010C947C016C
:100020000C947C010C947C010C947C010C947C015C
:100030000C947C010C947C010C94A4130C947C0112
:100040000C947C010C947C010C947C010C947C013C
:100050000C947C010C947C010C947C010C947C012C
:100060000C947C010C947C010C947C010C947C011C
:100070000C947C010C947C010C947C010C947C010C
:100080000C947C010C947C010C947C010C947C01FC
:100090000C947C010C947C010C947C010C947C01EC
:1000A0000C947C010C947C010C947C010C947C01DC
:1000B0000C947C010C947C010C947C010C947C01CC
:1000C0000C947C010C947C010C947C010C947C01BC
:1000D0000C947C010C947C010C947C010C947C01AC
:1000E0000C947C010C947C010C947C010C947C019C
:1000F0000C947C010C94A3090C947C010C947C015D
:100100000C947C010C947C010C947C010C947C017B
:100110000C947C010C947C010C947C010C947C016B
:100120000C947C010C947C010C947C010C947C015B
:100130000C947C010C947C010C947C010C947C014B
:100140000C947C010C947C010C947C010C947C013B
:100150000C947C010C947C010C947C010C947C012B
:100160000C947C010C947C010C947C010C947C011B
:100170000C947C010C947C010C947C010C947C010B
:100180000C947C010C947C010C947C010C947C01FB
:100190000C947C010C947C010C947C010C947C01EB
:1001A0000C947C010C947C010C947C010C947C01DB
:1001B0000C947C010C947C010C947C010C947C01CB
:1001C0000C947C010C947C010C947C010C947C01BB
:1001D0000C947C010C947C010C947C010C947C01AB
:1001E0000C947C010C947C010C947C010C947C019B
:1001F0000C947C010C947C010C947C01084AD73B44
:100200003BCE016E84BCBFFDC12F3D6C74319ABDE5
:1002100056833DDA3D00C77F11BED9E4BB4C3E9109
:100220006BAAAABE000000803F072C7AA5BA6CC555
:1002300090DA3B9365FC8BBC53F810FD3C569283DF
:100240004DBD879D3AB63DCBC9BF5BBE73DA0FC9C2
:100250003F05A84CCDB2D44EB93836A9020C50B9DE
:10026000918688083CA6AAAA2ABE000000803F000A
:100270004E414E494E495459494E46CDCCCC3D0A8B
:10028000D7233C17B7D13877CC2B329595E6241F6E
:10029000B14F0A000020410000C84200401C462027
:1002A000BCBE4CCA1B0E5AAEC59D740011241FBEA5
:1002B000CFEFCDBFDFE3DEBF00E00CBF18BE19BE3D
:1002C0001ABE1BBE11E2A0E0B0E2EAEFF2E300E0EA
:1002D0000BBF02C007900D92A034B107D9F71BBE27
:1002E00022E2A0E4B1E201C01D92A131B207E1F720
:1002F0000E94B8130C947B190C940000AC012AE006
:100300002A95F1F700C080E090E020E030E0B2E014
:10031000A1E061E070E0FA01022E02C0F595E795D8
:100320000A94E2F7E0FF03C0B093850602C0B093E1
:100330008606A0938606EAE6EA95F1F700C0E0910A
:100340008806E2FF09C0FB01022E02C0EE0FFF1F6C
:100350000A94E2F78E2B9F2BA09385062F5F3F4FC9
:1003600028303105C1F622E02093850625ED2A9537
:10037000F1F700000895E0E8F6E082E0858381E08F
:10038000858388E08683089582E0E0E8F6E085834F
:100390008FE39FE10197F1F700C0000088E08583BB
:1003A0008FE39FE10197F1F700C0000008950E94DC
:1003B000C4010C94BB01CF93E0E8F6E082E08183B6
:1003C00081E0818388E081830E94BB0181E090E02D
:1003D0000E947E0183E490E00E947E0180E090E034
:1003E0000E947E0181E090E00E947E0180E090E02A
:1003F0000E947E010E94D70181E090E00E947E0170
:1004000084E490E00E947E0180E090E00E947E0102
:1004100081E090E00E947E0183E090E00E947E01F6
:1004200080E090E00E947E0180E090E00E947E01EA
:1004300080E090E00E947E0180E090E00E947E01DA
:100440000E94D70181E090E00E947E018FE490E05D
:100450000E947E0180E090E00E947E018FEF90E09C
:100460000E947E018FEF90E00E947E0183E090E089
:100470000E947E0180E090E00E947E0180E090E09A
:100480000E947E0180E090E00E947E010E94D701E0
:1004900081E090E00E947E0183E490E00E947E0172
:1004A00080E090E00E947E0180E090E00E947E016A
:1004B0008AE590E00E947E018AE590E00E947E013C
:1004C0008AE590E00E947E018AE590E00E947E012C
:1004D0008AE590E00E947E010E94D70181E090E0D1
:1004E0000E947E0182E490E00E947E01C82F80E09D
:1004F00090E00E947E0180E090E00E947E0180E01A
:1005000090E00E947E0180E090E00E947E0180E009
:1005100090E00E947E0180E090E00E947E0180E0F9
:1005200090E00E947E010E94C4018C2FCF9108951B
:10053000EF92FF920F931F93CF93DF93EC010E94F2
:10054000BB0181E090E00E947E0182E490E00E9485
:100550007E01888380E090E00E947E01EC80FD8037
:100560001C821D8280E090E00E947E018C018C83C1
:100570009D8380E090E00E947E0120E030E0382FF3
:10058000202B312B2C833D832E253F2529833A8335
:1005900080E090E00E947E018E8380E090E00E94E7
:1005A0007E018F8380E090E00E947E01888780E05A
:1005B00090E00E947E0189870CE010E080E090E0EE
:1005C0000E947E018B830150110901151105B1F7BD
:1005D0000E94C40180E0DF91CF911F910F91FF90A5
:1005E000EF900895E4E6F6E08081806480838AE0FD
:1005F0008A95F1F700C080818F7B808308951F93D7
:10060000CF93DF931F92CDB7DEB790916406662338
:1006100011F0906101C09F7E9093640690916406F2
:100620009F7D90936406909160069F609093600612
:1006300010916406107F982F92959F70912B909344
:10064000640689830E94F20289818F70812B8093D6
:1006500064060E94F2021F60109364060F90DF91FF
:10066000CF911F910895E4E6F6E080818F7E80832C
:10067000808180628083A0E6B6E08C91807F8C933D
:100680008081806480838AE08A95F1F700C0809140
:10069000680690819F7B90839AE09A95F1F700C05D
:1006A0009081906490839AE09A95F1F700C09091C0
:1006B00068069F708295807F20812F7B2083892B05
:1006C00008950E94330387FDFCCF8AE28A95F1F7F3
:1006D00000C00C943303CF93C82F0E94610360E0E5
:1006E0008C2FCF910C94FF02611102C0805801C081
:1006F00080540C946B0381E00C946B03CF93C82F50
:100700000E946103CA3049F4803410F480E401C0CF
:1007100080E08058CF910C946B0361E08C2FCF91D7
:100720000C94FF02CF93DF93EC018991882319F099
:100730000E947E03FACFDF91CF910895CF93C82F07
:10074000E0E6F6E090819F6790832FEF8FE891E0DD
:10075000215080409040E1F700C00000E4E6F6E060
:100760009081926090839081916090830E94F202C8
:100770008FE39CE90197F1F700C000000E94F202AC
:100780008FEF91E00197F1F700C000000E94F202A4
:100790008FEF91E00197F1F700C00000E4E6F6E08A
:1007A00090819E7F90830E94F2028FEF91E00197EB
:1007B000F1F700C0000088E20E946B0388E00E940D
:1007C0006B030E947B0386E00E946B038C2FCF910A
:1007D0000C946B030E9468138AEA0C948E131F9387
:1007E000CF93DF93182FEB0184E80E948E13812FA3
:1007F0000E948E138C2F8F770E948E13CE01880F4C
:10080000892F881F990B91958F770E948E13E12F66
:10081000F0E0EE0FFF1FEB5AFE4DC083D183DF9156
:10082000CF911F910895AF92BF92CF92DF92EF9236
:10083000FF920F931F93CF93DF93C82FA62EBB2455
:10084000A7FCB09448E364039001361B11242452A2
:100850003A4F223E84E0380714F422EE34E0273D7C
:1008600046E0340714F026ED36E07901EE0CFF1C6B
:10087000EE0CFF1CB7018FE00E94EF038CE9C80269
:10088000800111240E58194F043125E0120714F489
:1008900004E115E0013D47E0140714F000ED17E016
:1008A000000F111F000F111FB80180E10E94EF031C
:1008B00084E6C80260011124E6011C141D0414F42E
:1008C000C0E0D0E0C45BDB4FC83E23E0D20714F4A5
:1008D000C8EED3E0CD3647E0D40714F0CCE6D7E03D
:1008E000CC0FDD1FCC0FDD1FBE0181E10E94EF03A5
:1008F00088EC8A9D90018B9D300D112424523A4F33
:10090000223E84E0380714F422EE34E0273D46E02E
:10091000340714F026ED36E0B901660F771F660F35
:10092000771F86E00E94EF0396012A5B3A4F283E2C
:1009300083E0380714F428EE33E0253A46E0340724
:1009400014F024EA36E0B901660F771F660F771FAF
:1009500087E00E94EF03C601D7FE02C080E090E06E
:100960008459984F8C3424E0920714F48CE494E07A
:10097000813D47E0940714F080ED97E0BC01660FDD
:10098000771F660F771F88E00E94EF03B70183E0AF
:100990000E94EF03B80184E00E94EF03BE0185E0EE
:1009A000DF91CF911F910F91FF90EF90DF90CF904B
:1009B000BF90AF900C94EF039F92AF92BF92CF92F3
:1009C000DF92EF92FF920F931F93CF93DF93982EB6
:1009D000A62EBB24A7FCB09428EC6203B00111241E
:1009E00064527A4F623E34E0730714F462EE74E0AE
:1009F000673D86E0780714F066ED76E07B01EE0C4B
:100A0000FF1CEE0CFF1CB7018CE00E94EF03992D38
:100A100024E69202E00111248E010A5B1A4F083E7F
:100A200033E0130714F408EE13E0053A86E01807E4
:100A300014F004EA16E0000F111F000F111FB80197
:100A40008DE00E94EF03CE011C161D0614F480E019
:100A500090E02CE637E0281B390B2C3494E0390762
:100A600014F42CE434E0213D87E0380714F020ED45
:100A700037E06901CC0CDD1CCC0CDD1CB6018EE02E
:100A80000E94EF0388E38A9DB0018B9D700D7A1957
:100A9000112464527A4F623E94E0790714F462EEB6
:100AA00074E0673D26E0720714F066ED76E0660FAD
:100AB000771F660F771F89E00E94EF03392D2CE91D
:100AC0003202C00111248E58994F843135E09307CA
:100AD00014F484E195E0813D27E0920714F080ED65
:100AE00097E0BC01660F771F660F771F8AE00E94B0
:100AF000EF03D7FF02C0C0E0D0E08CE494E08C1B91
:100B00009D0B883E33E0930714F488EE93E08D3616
:100B100027E0920714F08CE697E0BC01660F771F80
:100B2000660F771F8BE00E94EF03B70180E00E9401
:100B3000EF03B80181E00E94EF03B60182E0DF918C
:100B4000CF911F910F91FF90EF90DF90CF90BF90CA
:100B5000AF909F900C94EF033F924F925F926F92F1
:100B60007F928F929F92AF92BF92CF92DF92EF923D
:100B7000FF920F931F93CF93DF93CDB7DEB72897E4
:100B8000CDBFDEBF382E4A015B01280139019A0131
:100B9000AB01C501B4010E948C1669837A838B83F3
:100BA0009C83A3019201C301B2010E948C169B0198
:100BB000AC0169817A818B819C810E94D1130E9452
:100BC000F91620E030E048E452E40E94D013698333
:100BD0007A838B839C839B01AC010E948C166D836E
:100BE0007E838F839887A5019401C301B2010E947F
:100BF000441420EE3EE245E652E40E948C164B017E
:100C00005C0120E030E249E955E46D817E818F810D
:100C100098850E94D11320E030E14DE356E40E9414
:100C2000D0132B013C0129813A814B815C81CA019F
:100C3000B9010E94D11320E030E04CE852E40E9458
:100C40008C169B01AC01C301B2010E949E140E944C
:100C5000C2132B013C0129813A814B815C81C70180
:100C6000B6010E9444149B01AC01C301B2010E9471
:100C7000D11320EE3EE245E652E40E948C166B0151
:100C80007C012D813E814F81588560E070ED84E8C4
:100C900096E40E94D01320E030EA40E756E40E9438
:100CA0009E140E94C21320EE3EE245E652E40E94EA
:100CB0008C162B013C01832D880F132D180F25E571
:100CC00035E545E051E4C501B40130FE54C00E9451
:100CD0008C169B01AC0160E070E88BEB94E40E9401
:100CE000D0130E940615623E84E0780714F462EE89
:100CF00074E0673DE6E07E0714F066ED76E0660F8F
:100D0000771F660F771F812F0E94EF0325E535E5DA
:100D100045E051E4C701B6010E948C169B01AC016D
:100D200060E070EA8CE095E40E94D0130E94061502
:100D3000623EF4E07F0714F462EE74E0673688E008
:100D4000780714F066E678E0660F771F660F771F66
:100D500081E0810F0E94EF0325E535E545E051E490
:100D6000C301B2010E948C1620E030E84BE354E44A
:100D70000E94D11351C00E948C1620E030E84BEB4A
:100D800054E40E94D1130E940615623E84E0780765
:100D900014F462EE74E0673DE6E07E0714F066ED61
:100DA00076E0660F771F660F771F812F0E94EF0393
:100DB00025E535E545E051E4C701B6010E948C16F2
:100DC00020E030E84BE354E40E94D1130E94061562
:100DD0006032F3E07F0714F460E273E0673D86E081
:100DE000780714F066ED76E0660F771F660F771FC1
:100DF00081E0810F0E94EF0325E535E545E051E4F0
:100E0000C301B2010E948C169B01AC0160E070EA44
:100E10008CE095E40E94D0130E9406156235E3E051
:100E20007E0714F462E573E06736F8E07F0714F09C
:100E300066E678E0660F771F660F771F82E0810F06
:100E40002896CDBFDEBFDF91CF911F910F91FF900C
:100E5000EF90DF90CF90BF90AF909F908F907F905A
:100E60006F905F904F903F900C94EF032F923F92C2
:100E70004F925F926F927F928F929F92AF92BF92AA
:100E8000CF92DF92EF92FF920F931F93CF93DF9356
:100E90001F921F92CDB7DEB789834A015B0119010A
:100EA000EA822BED3FE049E450ECC501B4010E9419
:100EB000971487FDADC02BED3FE049E450E4C50138
:100EC000B4010E94811618160CF4A2C0C501B40129
:100ED0000E94EF1620E030E0A9010E9474152B015A
:100EE0003C016091032070910420882777FD809554
:100EF000982F0E9439156B017C0120E030E044EB13
:100F000052E4C301B2010E948C16A70196010E940F
:100F1000D1130E9406153B018A81882329F120E024
:100F200030E0A901C501B4010E94811687FD1CC0F3
:100F3000A5019401C501B4010E94D1130E94EF16CE
:100F40009F7720E030E044EB52E40E948C1620E0D2
:100F500030E040E05FE30E948C16A70196010E94FA
:100F6000D1130E9406153B01C501B4019F779B0177
:100F7000AC010E94D1132BED3FE049E450E40E9404
:100F80009E1420E030E040E85FE30E94D0134B0164
:100F90005C01B301882777FD8095982F0E94391551
:100FA0006B017C01B801882777FD8095982F0E94FE
:100FB0003915A50194010E948C160E9406158827F8
:100FC00077FD8095982F0E9439152B013C01B101C6
:100FD000882777FD8095982F0E943915A5019401E7
:100FE0000E948C160E94061520910120309102204B
:100FF000260F371FB901882777FD8095982F0E940B
:101000003915AB01BC019301820189810E94AC05B5
:101010000F900F90DF91CF911F910F91FF90EF9064
:10102000DF90CF90BF90AF909F908F907F906F9008
:101030005F904F903F902F9008952F923F924F9244
:101040005F926F927F928F929F92AF92BF92CF9258
:10105000DF92EF92FF920F931F93CF93DF93CDB761
:10106000DEB72A97CDBFDEBF382E2A013B010983A8
:101070001A832B833C832E2C2BED3FE049E450EC6C
:10108000C301B2010E94971487FD47C12BED3FE0D9
:1010900049E450E4C301B2010E94811618160CF411
:1010A0003CC1C301B2010E94EF1620E030E0A9016B
:1010B0000E9474156B017C016091032070910420E3
:1010C000882777FD8095982F0E9439154B015C0188
:1010D00020E030E044EB52E4C701B6010E948C16D8
:1010E000A50194010E94D1130E9406158B012220B4
:1010F00029F120E030E0A901C301B2010E9481166C
:1011000087FD1CC0A3019201C301B2010E94D1134B
:101110000E94EF169F7720E030E044EB52E40E94FB
:101120008C1620E030E040E05FE30E948C16A501C1
:1011300094010E94D1130E9406158B0122E0321601
:1011400071F1231558F0332009F43EC031E0331219
:1011500053C0E0EAF0E0E987FA8743C084E038163C
:1011600031F0381628F195E0391651F045C08981E3
:101170009A81AB81BC81B05889839A83AB83BC834D
:10118000A0E6BFEFA987BA87812C912C20E8A22E78
:1011900023E4B22E6AE979E98EE192E434C08981D0
:1011A0009A81AB81BC81B05889839A83AB83BC831D
:1011B00019861A86812C912C98E4A92E93E4B92ED5
:1011C00060E070E0CB011FC089819A81AB81BC8156
:1011D000B05889839A83AB83BC83A0EAB0E0A98727
:1011E000BA87812C912C80E8A82E83E4B82E6AE976
:1011F00079E98EE192EC07C019861A86812C912C30
:101200005401C501B4012BED3FE049E450E40E94D4
:101210008C1620E030E044E353E40E949E146B01FE
:101220007C01C301B2019F779B01AC010E94D113E5
:101230002BED3FE049E450E40E949E1420E030E0B2
:1012400040E85FE30E94D0139B01AC0169817A8181
:101250008B819C810E948C169B01AC01C701B60159
:101260000E94D1136B017C010E949B1469837A83D5
:101270008B839C83C701B6010E94EF169B01AC01D2
:10128000B801882777FD8095982F2D833E834F8363
:1012900058870E9439156B017C012D813E814F8159
:1012A0005885C501B4010E948C162B013C01E985CB
:1012B000FA85BF01882777FD8095982F0E94391500
:1012C0009B01AC01C301B2010E94D1130E9406151B
:1012D000882777FD8095982F0E9439152B013C01B6
:1012E00029813A814B815C81C501B4010E948C1631
:1012F00020E030E04CE852E40E94D0130E94061532
:10130000882777FD8095982F0E943915AB01BC0185
:1013100093018201832D0E94AC052A96CDBFDEBFCA
:10132000DF91CF911F910F91FF90EF90DF90CF90C1
:10133000BF90AF909F908F907F906F905F904F90F5
:101340003F902F9008951F920F920FB60F92112485
:1013500008B60F9218BE0BB60F921BBE8F939F93C9
:10136000EF93FF938091B00A9091532197FD15C0A0
:1013700094E090936706E0915321F0E0EB57FE4D27
:101380008D3029F4108281E08093522101C0808346
:10139000809153218F5F80935321FF91EF919F9113
:1013A0008F910F900BBE0F9008BE0F900FBE0F9045
:1013B0001F901895FC012191CF01222339F0309123
:1013C000B10A35FFFCCF2093B00AF4CF0895CF9334
:1013D000DF93D82FDD0FD80FC0E060E070E08C2FD6
:1013E0008D0F0E94EF03CF5FC330B9F7DF91CF912C
:1013F0000895CF93DF93D82F60E08823C1F082E077
:101400000E94130460E082E00E94DC042FEF83ED71
:1014100090E3215080409040E1F700C00000C0E020
:101420008C2F0E94E709CF5FC630D1F707C08FEF3E
:101430000E94130460E08FEF0E94DC04D093002030
:10144000DF91CF910895CF938FEF8093600680EE68
:10145000809341061092E00628E12093F006209345
:10146000F1062093F2062093F3062093F4062093CE
:10147000F5062093F6062093F70683E298E0809322
:10148000260890932708109220081092210882E0E5
:101490008093060887E08093000880E880938106A7
:1014A00080ED8093B70A83E88093B60A80E3809347
:1014B000B30A83E08093B50A2093B40A8CE00E94BB
:1014C0009E030E947B0385E090E20E9492030E94AB
:1014D000EA036CED75E086E10E94EF03C0E060E096
:1014E00070E08C2F0E94EF03CF5FC231C1F70E94E2
:1014F000DB0181E00E94F9098091A200866080935F
:10150000A20078942FEF89EF90E021508040904026
:10151000E1F700C00000CF9108958F929F92AF92A3
:10152000BF92EF920F931F93CF93DF938091880622
:1015300085FD1DC08091512181111BC061E00E9479
:10154000740387E190E20E9492030E94DB01C82F9E
:1015500061E080E00E947403C33721F481E080934E
:10156000512107C088E290E20E94920302C01092CB
:10157000512182E08093670680914D21811105C041
:1015800080914C21882309F489C220914421309113
:1015900045212B5F3F4F209344213093452180917B
:1015A00042219091432105968093422190934321BB
:1015B0002536310534F02CE93FEF20934421309358
:1015C00045218536910534F08CE99FEF80934221C7
:1015D000909343216091462170914721C09144210D
:1015E000D09145216115710509F444C1882777FD23
:1015F0008095982F0E9439152BED3FE049E450E487
:101600000E948C1620E030E044E353E40E949E14D4
:101610004B015C01BE01882777FD8095982F0E94C1
:1016200039152BED3FE049E450E40E948C1620E090
:1016300030E048EC52E40E949E14AB01BC01E09003
:101640004C219501840180E00E941D086091462193
:1016500070914721882777FD8095982F0E94391532
:101660002BED3FE049E450E40E948C1620E030E08E
:1016700044E353E40E949E144B015C0160914221BB
:1016800070914321882777FD8095982F0E94391506
:101690002BED3FE049E450E40E948C1620E030E05E
:1016A00048EC52E40E949E14AB01BC01E0904C2136
:1016B0009501840181E00E941D086091462170918E
:1016C0004721882777FD8095982F0E9439152BEDAB
:1016D0003FE049E450E40E948C1620E030E044E30F
:1016E00053E40E949E144B015C0160914221709171
:1016F0004321882777FD8095982F0E9439152BED7F
:101700003FE049E450E40E948C1620E030E048ECD1
:1017100052E40E949E14AB01BC01E0904C21950163
:10172000840182E00E941D0860914621709147214A
:10173000882777FD8095982F0E9439152BED3FE083
:1017400049E450E40E948C1620E030E044E353E486
:101750000E949E144B015C016091442170914521CF
:10176000882777FD8095982F0E9439152BED3FE053
:1017700049E450E40E948C1620E030E048EC52E44A
:101780000E949E14AB01BC01E0904C2195018401A4
:1017900083E00E941D0860914621709147218827AF
:1017A00077FD8095982F0E9439152BED3FE049E495
:1017B00050E40E948C1620E030E044E353E40E94A1
:1017C0009E144B015C016091442170914521882752
:1017D00077FD8095982F0E9439152BED3FE049E465
:1017E00050E40E948C1620E030E048EC52E40E9465
:1017F0009E14AB01BC01E0904C219501840184E072
:101800000E941D086091462170914721882777FD2D
:101810008095982F0E9439152BED3FE049E450E464
:101820000E948C1620E030E044E353E40E949E14B2
:101830004B015C016091422170914321882777FD23
:101840008095982F0E9439152BED3FE049E450E434
:101850000E948C1620E030E048EC52E40E949E1476
:10186000AB01BC01E0904C219501840185E00E9410
:101870001D08EAC00091482110914921A0904A21F9
:10188000B0904B21BE01882777FD8095982F0E944C
:1018900039152BED3FE049E450E40E948C1620E01E
:1018A00030E048EC52E40E949E14AB01BC01E09091
:1018B0004C21950180E00E9436070091482110914B
:1018C0004921A0904A21B0904B21B194A194B10834
:1018D0006091422170914321882777FD8095982F50
:1018E0000E9439152BED3FE049E450E40E948C162C
:1018F00020E030E048EC52E40E949E14AB01BC01B1
:10190000E0904C21950181E00E943607009148212A
:1019100010914921A0904A21B0904B216091422121
:1019200070914321882777FD8095982F0E94391563
:101930002BED3FE049E450E40E948C1620E030E0BB
:1019400048EC52E40E949E14AB01BC01E0904C2193
:10195000950182E00E9436070091482110914921AB
:10196000A0904A21B0904B21B194A194B10860910C
:10197000442170914521882777FD8095982F0E94FA
:1019800039152BED3FE049E450E40E948C1620E02D
:1019900030E048EC52E40E949E14AB01BC01E090A0
:1019A0004C21950183E00E94360700914821109157
:1019B0004921A0904A21B0904B216091442170911F
:1019C0004521882777FD8095982F0E9439152BEDAA
:1019D0003FE049E450E40E948C1620E030E048ECFF
:1019E00052E40E949E14AB01BC01E0904C21950191
:1019F00084E00E9436070091482110914921A0906F
:101A00004A21B0904B21B194A194B1086091422138
:101A100070914321882777FD8095982F0E94391572
:101A20002BED3FE049E450E40E948C1620E030E0CA
:101A300048EC52E40E949E14AB01BC01E0904C21A2
:101A4000950185E00E943607209142213091432183
:101A50002115310531F08091442190914521009765
:101A6000A9F48091092290910A229C0120733327C6
:101A70002033310571F4807C9927803C910549F42D
:101A800081E080934C2110924D2108C02233310512
:101A900019F410924C2102C0C297D9F3DF91CF9173
:101AA0001F910F91EF90BF90AF909F908F900895EE
:101AB00081E080934C2180934D2182E390E08093DC
:101AC0004421909345218EEC9FEF80934221909387
:101AD000432108954F925F926F927F928F929F92CF
:101AE000AF92BF92CF92DF92EF92FF920F931F932C
:101AF000CF93DF93CDB7DEB76897CDBFDEBF8091C0
:101B00005421882321F0109254210E948D0A809143
:101B10005121882309F4FDC3F89485E092E20E94E4
:101B2000980278948091062280FF20C0809109223B
:101B300080FF1CC081E090914F21911180E0809343
:101B40004F2161E0882341F080E00E94740383E329
:101B500090E20E9492030AC080E00E94740384E431
:101B600090E20E94920381E00E94F90980914F2146
:101B7000882309F4C5C38091062283FF0AC080919F
:101B8000092283FD06C09091002081E089270E94F0
:101B9000F9098091062284FF1CC08091092284FDEE
:101BA00018C080914D21811114C080914C21811168
:101BB00010C00E94580D8BE490E0809348219093D0
:101BC000492110924A2110924B21109246211092E5
:101BD00047218091062286FF1CC08091092286FD44
:101BE00018C080914D21811114C080914C21811128
:101BF00010C00E94580D85EB9FEF80934821909371
:101C0000492110924A2110924B21109246211092A4
:101C100047218091062285FF29C08091092285FDF8
:101C200025C080914D21811121C080914C218111CD
:101C30001DC00E94580D10924821109249218DED2F
:101C40009FEF80934A2190934B218091092290919C
:101C50000A2292FF07C081EF9FEF80934621909365
:101C6000472104C0109246211092472180910622FC
:101C700087FF29C08091092287FD25C080914D21D1
:101C8000811121C080914C2181111DC00E94580DED
:101C9000109248211092492183E290E080934A21DA
:101CA00090934B218091092290910A2292FF07C0C4
:101CB0008FE090E0809346219093472104C01092DA
:101CC00046211092472180910C2290E08F57910974
:101CD000AAE0FA2EF89EB001F99E700D1124605909
:101CE000784E82E10E94EF0380910C220FE710E012
:101CF0009801281B3109F29EB001F39E700D11244A
:101D00006059784E84E10E94EF0380910B22980184
:101D1000281B3109F29EB001F39E700D11246C5BFB
:101D2000794E83E10E94EF0380910B22081B110979
:101D3000F09EB001F19E700D1124775E85E10E9446
:101D4000EF03209106223091072280910922909181
:101D50000A2230FF10C01092000890FD03C046E038
:101D600050E002C04AE050E0409326085093270814
:101D700047E04093000837FF09C097FF07C041E0E4
:101D800050915021511140E04093502121FF08C053
:101D900081FF06C020914E2131E0232720934E2160
:101DA00095FF08C020915021222321F020E22093AA
:101DB000460603C020E22093450694FF08C0209108
:101DC0005021222321F020E42093460603C020E482
:101DD0002093450696FF08C080915021882321F06A
:101DE00080E88093460603C080E880934506809192
:101DF0004D2181118EC280914C2181118AC2809126
:101E00000020811186C280914E21882309F463C08D
:101E1000A12CB12CFFE78F2E912C80910E221091D6
:101E20000D229401281B3109C901A0FE1DC037FDF8
:101E30000196BC0175956795882777FD8095982F49
:101E40000E9439152B013C01612F70E06F57710919
:101E500077FF02C06D5F7F4F7595679575956795A4
:101E600071956195710919C037FD0196BC01759591
:101E70006795882777FD8095982F0E9439152B014B
:101E80003C01612F70E06F57710977FF02C06D5FF1
:101E90007F4F75956795759567956A567F4F88272B
:101EA00077FD8095982F0E943915AB01BC01C12C9C
:101EB000D12C28ECE22E22ECF22E930182018A2D05
:101EC0000E94AC053FEFA31AB30A86E0A816B1043E
:101ED00009F0A3CF1EC280910D2290E08F57910987
:101EE00097FD0796BC0193E0759567959A95E1F784
:101EF000882777FD8095982F0E9439154B015C014A
:101F000080910E2290E08F57910997FD0796BC01B2
:101F100013E0759567951A95E1F7882777FD809509
:101F2000982F0E943915698B7A8B8B8B9C8B20E0C4
:101F300030E040E052E40E94D01320E030E044E37F
:101F400053E40E949E142BED3FE049E450E40E94CC
:101F50008C160E94EF1624E13EEA4CE353E40E9403
:101F60008C166D8B7E8B8F8B988F20E030E040E15C
:101F700052E4C501B4010E94D11320E030E044E3F3
:101F800053E40E949E142BED3FE049E450E40E948C
:101F90008C166B017C010E94EF162B013C01C701DE
:101FA000B6010E949B146B017C0120E030E048E800
:101FB00053E4C301B2010E948C1620E030E040E2FD
:101FC00053E40E94D0132B013C0120E030E048E8AC
:101FD00053E4C701B6010E948C1620E030E04CE8C3
:101FE00052E40E94D013AB01BC01CD88DE88EF889B
:101FF000F88C9301820185E00E94AC0520E030E07E
:1020000044E353E4C501B4010E949E142BED3FE06C
:1020100049E450E40E948C166B017C010E94EF168B
:102020002B013C01C701B6010E949B146B017C018E
:1020300020E030E04CE553E4C301B2010E948C166D
:102040002B013C0120E030E04CE553E4C701B60130
:102050000E948C1620E030E04CE852E40E94D0133D
:10206000AB01BC01C12CD12C08ECE02E02ECF02E0F
:102070009301820183E00E94AC0529893A894B894A
:102080005C8960E070E080E092EC0E94D01320E078
:1020900030E044E353E40E949E142BED3FE049E41A
:1020A00050E40E948C160E94EF1624E13EEA4CE3B5
:1020B00053E40E948C16698B7A8B8B8B9C8B20E06F
:1020C00030E040E152E4C501B4010E94D01320E0A9
:1020D00030E044E353E40E949E142BED3FE049E4DA
:1020E00050E40E948C166B017C010E94EF162B01BC
:1020F0003C01C701B6010E949B146B017C0120E0EA
:1021000030E048E853E4C301B2010E948C1620E09D
:1021100030E040E253E40E94D1132B013C0120E067
:1021200030E048E853E4C701B6010E948C1620E075
:1021300030E04CE852E40E94D013AB01BC01C988E6
:10214000DA88EB88FC889301820181E00E94AC056B
:102150002401350177FA709477F87094A501940101
:1021600060E070E080E192E40E94D01320E030E073
:1021700044E353E40E949E142BED3FE049E450E415
:102180000E948C166B017C010E94EF164B015C01D2
:10219000C701B6010E949B146B017C0120E030E076
:1021A00048E853E4C501B4010E948C1620E030E0F9
:1021B00040E253E40E94D0134B015C0120E030E088
:1021C00048E853E4C701B6010E948C1620E030E0D5
:1021D0004CE852E40E94D013AB01BC01CD88DE88EC
:1021E000EF88F88C9501840184E00E94AC0520E022
:1021F00030E044E353E4C301B2010E949E142BED8E
:102200003FE049E450E40E948C166B017C010E947F
:10221000EF164B015C01C701B6010E949B146B01D4
:102220007C0120E030E04CE553E4C501B4010E949C
:102230008C164B015C0120E030E04CE553E4C70113
:10224000B6010E948C1620E030E04CE852E40E9477
:10225000D013AB01BC01C12CD12C88ECE82E82EC50
:10226000F82E9501840182E00E94AC0520E030E068
:1022700040E152E4C301B2010E94D01320E030E0FB
:1022800044E353E40E949E142BED3FE049E450E404
:102290000E948C166B017C010E94EF164B015C01C1
:1022A000C701B6010E949B146B017C0120E030E065
:1022B00048E853E4C501B4010E948C1620E030E0E8
:1022C00040E253E40E94D1134B015C0120E030E076
:1022D00048E853E4C701B6010E948C1620E030E0C4
:1022E0004CE852E40E94D013AB01BC01C988DA88E3
:1022F000EB88FC889501840180E00E94AC0509C050
:1023000010E060E070E0812F0E94EF031F5F123148
:10231000C1F780915221882309F4C6C163E570E2B8
:1023200085E891E20E9486174C0165E570E285E838
:1023300091E20E948A17892B09F0BFC080914F213A
:102340008111B8C0A12CB12C8114910409F4A8C149
:1023500022E0A216B10409F04DC0C4010E947A1710
:102360002BED3FE049E450E40E949E1420E030E071
:102370004AE754E40E948C166B017C0120E030E8AF
:102380004BEB54E40E94D1130E9406156E3734E0E3
:10239000730714F46EE774E06B3387E0780714F08A
:1023A0006AE377E0660F771F660F771F82E10E946E
:1023B000EF03A701960160E070E88BEB94E40E94C4
:1023C000D0130E9406156E3724E0720714F46EE7EE
:1023D00074E06B3337E0730714F06AE377E0660F5D
:1023E000771F660F771F84E10E94EF036CED75E0A5
:1023F00086E14EC081E0A816B10409F04BC0C401CB
:102400000E947A172BED3FE049E450E40E949E14AD
:1024100020E030E04AE754E40E948C166B017C0116
:102420009B01AC0160E070E282EB94E40E94D01367
:102430000E940615623E24E0720714F462EE74E016
:10244000673D36E0730714F066ED76E0660F771FA0
:10245000660F771F83E10E94EF03A701960160E0FA
:1024600070E088EC94E40E94D0130E940615623E4E
:1024700084E0780714F462EE74E0673D26E07207AA
:1024800014F066ED76E0660F771F660F771F85E123
:102490000E94EF0363E570E280E090E00E948617FF
:1024A0004C013FEFA31AB30A83E0A816B10409F068
:1024B0004BCFF6C08CE590E2F1C063E770E285E8AF
:1024C00091E20E948A17892B09F072C080914F21F6
:1024D00081116BC0E12CF12C10E800E460E2D62EF3
:1024E00070EEC72E8114910409F4DAC068E970E235
:1024F000C4010E948A17892B19F4C092450645C071
:1025000069E770E2C4010E948A17892B19F4C0920E
:1025100046063BC021E0E216F10481F4C4010E94AA
:102520007A1720E030E0A9010E94811618161CF4E9
:10253000D09245062AC0D092460627C032E0E31664
:10254000F10481F4C4010E947A1720E030E0A9016F
:102550000E94811618161CF40093450616C00093BD
:10256000460613C083E0E816F10479F4C4010E9422
:102570007A1720E030E0A9010E94811618161CF499
:102580001093450602C01093460663E570E280E0B2
:1025900090E00E9486174C012FEFE21AF20A34E015
:1025A000E316F10409F09ECF7BC08DE790E276C080
:1025B00063E970E285E891E20E948A17892B19F499
:1025C0008BE990E26BC066EC70E285E891E20E94D4
:1025D0008A17892B81F48091E80640E1BE016F5F84
:1025E0007F4F90E00E94BA17CE0101960E94DA094F
:1025F00083EC90E253C06CEC70E285E891E20E94BB
:102600008A17892B51F480914F21882319F084ED8A
:1026100090E244C08BED90E241C063EE70E285E849
:1026200091E20E948A17892B19F480910020EDCF46
:1026300069EE70E285E891E20E948A17892B61F5C4
:1026400080914F21811125C063E570E280E090E028
:102650000E9486178C016EEE70E20E948A17892B09
:10266000F9F063EF70E2C8010E948A17892BC1F06C
:1026700068EF70E2C8010E948A17892B89F06DEF1C
:1026800070E2C8010E948A17892B51F083E091E221
:1026900005C088E191E202C08DE291E20E94DA0970
:1026A00010925321109252216896CDBFDEBFDF9168
:1026B000CF911F910F91FF90EF90DF90CF90BF903F
:1026C000AF909F908F907F906F905F904F90089504
:1026D000E0EAF8E0178287E68683138288E0848345
:1026E00093E09583E0E4F6E08583818380E1818354
:1026F00086832FEF89EF90E0215080409040E1F7F2
:1027000000C0000080E185832FEF89EF90E0215029
:1027100080409040E1F700C0000008959091A1082A
:1027200095FFFCCF8093A008089588ED84BF82E0D8
:10273000809350008091510081FFFCCF88ED84BFD1
:1027400081E08093400008951F920F920FB60F9280
:10275000112408B60F9218BE8F9381E08093542104
:102760008F910F9008BE0F900FBE0F901F9018957D
:102770000E9495130E94230AC1E00E946A0DC09333
:102780006706FBCF9F939F77CED10F9000203AF43E
:102790009058A2EA2AED3FE049E450E413D066C223
:1027A0005058BB27AA270ED061C22AD230F02FD2B0
:1027B00020F031F49F3F11F41EF4FAC10EF4E095BD
:1027C000E7FBF0C1E92F74D280F3BA1762077307F1
:1027D0008407950718F071F49EF58CC20EF4E0950D
:1027E0000B2EBA2FA02D0B01B90190010C01CA01CB
:1027F000A0011124FF27591B99F0593F50F4503E76
:1028000068F11A16F040A22F232F342F4427585F67
:10281000F3CF469537952795A795F0405395C9F77F
:102820007EF41F16BA0B620B730B840BBAF0915037
:10283000A1F0FF0FBB1F661F771F881FC2F70EC0D6
:10284000BA0F621F731F841F48F4879577956795A9
:10285000B795F7959E3F08F0B3CF9395880F08F092
:102860009927EE0F979587950895CAD158F080E87B
:1028700091E009F49EEFCBD128F040E851E059F403
:102880005EEF09C095C136C2E92FE07811D268F336
:10289000092E052AC1F3261737074807590738F0CC
:1028A0000E2E07F8E02569F0E025E0640AC0EF632A
:1028B00007F8009407FADB01B9019D01DC01CA01A8
:1028C000AD01EF934AD0D2D10AD05F91552331F0B8
:1028D0002BED3FE049E450FD49EC63CF0895DF93D1
:1028E000DD27B92FBF7740E85FE3161617064807C4
:1028F0005B0710F4D92F09D29F938F937F936F9327
:10290000B6D2ECEFF1E057D1B1D12F913F914F9179
:102910005F910ED2DD2349F09058A2EA2AED3FE004
:1029200049EC5FE3D0785D274DDFDF919FC116D181
:1029300008F481E0089573D1E395A9C10CD096C144
:1029400066D140F05DD130F021F45F3F19F02AC12B
:102950005111D1C12DC1ACD198F39923C9F355239D
:10296000B1F3951B550BBB27AA2762177307840782
:1029700038F09F5F5F4F220F331F441FAA1FA9F338
:1029800033D00E2E3AF0E0E830D091505040E6952A
:10299000001CCAF729D0FE2F27D0660F771F881F8B
:1029A000BB1F261737074807AB07B0E809F0BB0B7A
:1029B000802DBF01FF2793585F4F2AF09E3F51059E
:1029C00068F0F0C098C15F3FECF3983EDCF3869569
:1029D00077956795B795F7959F5FC9F7880F911D14
:1029E0009695879597F90895E1E0660F771F881F00
:1029F000BB1F621773078407BA0720F0621B730BB3
:102A0000840BBA0BEE1F88F7E095089504D0689404
:102A1000B11171C1089554D188F09F5790F0B92F2A
:102A20009927B751A0F0D1F0660F771F881F991F23
:102A30001AF0BA95C9F712C0B13081F05BD1B1E09C
:102A4000089558C1672F782F8827B85F39F0B93FAC
:102A5000CCF3869577956795B395D9F73EF4909525
:102A60008095709561957F4F8F4F9F4F0895E894A3
:102A700009C097FB3EF490958095709561957F4FC6
:102A80008F4F9F4F9923A9F0F92F96E9BB27939574
:102A9000F695879577956795B795F111F8CFFAF484
:102AA000BB0F11F460FF1BC06F5F7F4F8F4F9F4FB5
:102AB00016C0882311F096E911C0772321F09EE813
:102AC000872F762F05C0662371F096E8862F70E079
:102AD00060E02AF09A95660F771F881FDAF7880F53
:102AE0009695879597F90895990FBB0B550FAA0BEB
:102AF000E0E8FEEF16161706E807F90770F0121661
:102B00001306E407F50760F0BA173CF049F46217C2
:102B1000730784079507A7951BF4B901CA01BA2F5B
:102B2000B69597950895DF93CF931F930F938B01DD
:102B3000EC01E9E2F2E03FD099D09801AE018B01BF
:102B4000EC0160E070E080E89FE32ADE52D198015A
:102B5000AE010F911F91CF91DF91EAC0990F00084C
:102B6000550FAA0BE0E8FEEF16161706E807F9075F
:102B7000C0F012161306E407F50798F0621B730BFA
:102B8000840B950B39F40A2661F0232B242B252B7B
:102B900021F408950A2609F4A140A6958FEF811D1E
:102BA000811D089597F99F6780E870E060E00895BF
:102BB0009FEF80EC0895DF93CF931F930F93FF92C5
:102BC000EF92DF927B018C01689405C0DA2EEF0151
:102BD000AFD0FE01E894A59125913591459155918D
:102BE000AEF3EF01EFDDFE019701A801DA9479F76A
:102BF000DF90EF90FF900F911F91CF91DF9108959B
:102C000000240A94161617061806090608950024CB
:102C10000A9412161306140605060895C9CF50D05B
:102C2000E8F3E894E0E0BB279F57F0F02AED3FE09F
:102C300049EC06C0EE0FBB0F661F771F881F28F0F8
:102C4000B23A62077307840728F0B25A620B730B1B
:102C5000840BE3959A9572F7803830F49A95BB0F00
:102C6000661F771F881FD2F7904806C1092E03946C
:102C7000000C11F4882352F0BB0F40F4BF2B11F469
:102C800060FF04C06F5F7F4F8F4F9F4F0895EF939A
:102C9000E0FF06C0A2EA2AED3FE049EC5FEB92DDDF
:102CA000E5DF0F90039401FC9058E1E5F2E0F7C0F6
:102CB00057FD9058440F551F59F05F3F71F04795ED
:102CC000880F97FB991F61F09F3F79F087950895D2
:102CD000121613061406551FF2CF4695F1DF08C0F1
:102CE000161617061806991FF1CF8695710561050E
:102CF00008940895E894BB2766277727CB0197F9B6
:102D000008952CDF08F48FEF08959B01AC0160E07B
:102D100070E080E89FE312CE0BD0A8CF71DF28F0DF
:102D200076DF18F0952309F03DCF42CF1124E3CF91
:102D3000BFDFA0F3959FD1F3950F50E0551F629F21
:102D4000F001729FBB27F00DB11D639FAA27F00D04
:102D5000B11DAA1F649F6627B00DA11D661F829F2B
:102D60002227B00DA11D621F739FB00DA11D621F10
:102D7000839FA00D611D221F749F3327A00D611D2D
:102D8000231F849F600D211D822F762F6A2F11240F
:102D90009F5750408AF0E1F088234AF0EE0FFF1F62
:102DA000BB1F661F771F881F91505040A9F79E3F99
:102DB000510570F0F7CE9FCF5F3FECF3983EDCF308
:102DC000869577956795B795F795E7959F5FC1F7D6
:102DD000FE2B880F911D9695879597F908959F93DF
:102DE0001EDF0F9007FCEE5F52CF11F40EF4E0CE21
:102DF00041C066DFD0F39923D9F3CEF39F57550B2B
:102E000087FF46D00024A0E640EA900180585695FE
:102E1000979528F4805C660F771F881F20F026178F
:102E20003707480730F4621B730B840B20293129C4
:102E30004A2BA69517940794202531254A2758F741
:102E4000660F771F881F20F026173707480730F4D2
:102E5000620B730B840B200D311D411DA09581F772
:102E6000B901842F9158880F9695879508959B01F5
:102E7000AC0152CF9F3F31F0915020F48795779568
:102E80006795B795880F911D9695879597F9089541
:102E900091505040660F771F881FD2F708959F9377
:102EA0008F937F936F93FF93EF939B01AC0134DF7C
:102EB000EF91FF9180DE2F913F914F915F912CCF49
:102EC0000E946B17A59F900DB49F900DA49F800D3D
:102ED000911D11240895A29FB001B39FC001A39F2B
:102EE000700D811D1124911DB29F700D811D112443
:102EF000911D0895662777270C94DF179111D0C193
:102F0000803219F089508550D0F7089540E451E29D
:102F10000C949317FB01DC018D9101908019011035
:102F2000D9F3990B0895FA01A191B081009719F492
:102F30001097E1F0CD01DC01CD010D90002011F4DE
:102F4000C00113C0FB012191222319F02015D9F7EC
:102F5000F3CFFB012191201519F41E92119606C0A2
:102F60002223C1F70D900020A1F7D001FA01A1930F
:102F7000B0830895BB274A3031F4992322F4BDE28F
:102F8000909581959F4F0C94C617BB27FB01552741
:102F9000AA27880F991FAA1FA41710F0A41B8395B6
:102FA0005051B9F7A05DAA3308F0A95DA19300972D
:102FB00079F7B111B1931192CB010C946B198F92E7
:102FC0009F92AF92BF92CF92DF92EF92FF920F93B8
:102FD0001F93CF93DF938B016115710521F0DB0106
:102FE0008C9311969C93EC015E01BFEFAB1ABB0A68
:102FF0007501C8808C2D90E00E947E17892B11F0FE
:10300000E501F2CFEDE2CE1208C07E01F2E0EF0E54
:10301000F11CC980DD24D39409C02BE2C21205C083
:103020007E0142E0E40EF11CC980D12CE70121971A
:1030300043E050E068E772E0CE010E945319892B0B
:10304000C1F4239645E050E063E772E0CE010E94B0
:103050005319892B09F425960115110519F0D8018A
:10306000CD93DC93D11006C160E070E080E89FE76B
:103070000AC143E050E060E772E0CE010E945319BC
:10308000892B59F40115110509F4F9C0B2E0EB0ED2
:10309000F11CF801E082F182F2C0F70160E070E01B
:1030A000CB01C0E0D0E07F01A0EDAA2EAC0C29E05E
:1030B0002A1530F14D2D4260B42E2D2D2870D2FEF0
:1030C00004C0211125C0219623C021112197A5E01C
:1030D000B0E09B01AC010E946017660F771F881F4C
:1030E000991F6A0D711D811D911D6839A9E97A0723
:1030F0008A07A9E19A0760F0BD2DB660BB2E08C013
:103100002EEFA2120AC0D3FC50C04D2D4860B42E41
:103110003196D701CC90DB2CC6CF2C2D2F7D2534BA
:1031200009F043C0A081AD3241F4BD2DB061DB2E6A
:103130007F0122E0E20EF11C0CC07F01AB3231F0C6
:103140004FEFE41AF40A21E030E006C0A2E0EA0EF4
:10315000F11CA18122E030E0A053AA3018F0E21A5D
:10316000F30A23C0F70120E030E02038BCE03B0741
:103170005CF4A901440F551F440F551F240F351F40
:10318000220F331F2A0F311DAF014F5F5F4F7A01AE
:10319000A081A053AA3010F4FA01E7CFD4FE03C0F7
:1031A000319521953109C20FD31FD1FE09C00115F8
:1031B000110531F0E1E0EE1AF108D801ED92FC9230
:1031C0000E9437152D2D2370233019F04B015C011F
:1031D00006C04B015C01B7FAB094B7F8B09420E098
:1031E00030E0A901C501B4010E949714882309F4B5
:1031F0003EC0D7FF06C0D195C195D1090FE812E0B6
:1032000002C007EA12E06801B8E1CB1AD10890E2E7
:10321000E92EF12CCE15DF0574F0F80125913591DA
:1032200045915491C501B4010E948C164B015C017B
:10323000CE19DF09EFCF04501109F594E7940C156E
:103240001D0541F78A2D880F8B2D881F8F3F49F070
:1032500020E030E0A901C501B4010E94971481115A
:1032600006C082E290E080930F2290931022C50165
:10327000B40109C060E070E080E89FEF04C060E046
:1032800070E080EC9FE7DF91CF911F910F91FF904D
:10329000EF90DF90CF90BF90AF909F908F90089568
:1032A000992788270895FB01DC014150504088F0A0
:1032B0008D9181341CF08B350CF4805E6591613406
:1032C0001CF06B350CF4605E861B611171F3990B79
:1032D0000895881BFCCFDC01FC01672F71917723D7
:1032E000E1F7329704C07C916D9370836291AE17C1
:0A32F000BF07C8F30895F894FFCF5C
:1032FA00018200A6FF4750412D524F424F54494385
:10330A00532E434F4D0A00494E495449414C495A9C
:10331A00494E472E2E2E20004552523A50534D4FB9
:10332A004445002020202D2D52454D4F54452D2D2A
:10333A00202020002020202D2D2D4155544F2D2DA9
:10334A002D202020006C6F6F6B6174006C6F6F6BA7
:10335A006174206E6F7420706F737369626C65217B
:10336A000A0D006C69676874006F6666006C6967AD
:10337A006874206E6F7420706F737369626C652154
:10338A000A0D0076657273696F6E004153482076A4
:10339A00657273696F6E20302E312E3120286329B1
:1033AA00204750412D524F424F5449435320323007
:1033BA003136210A0D00666565743F0072656D6FCE
:1033CA0074653F00747275650A0D0066616C7365F9
:1033DA000A0D00686F6D653F007374657000666F53
:1033EA007277006261636B006C656674007269676C
:1033FA00687400496E76616C6964206469726563F9
:10340A0074696F6E210A0D0053746570206E6F74B3
:10341A0020706F737369626C65210A0D00556E6BBB
:10342A006E6F776E20636F6D6D616E64210A0D0099
:00000001FF
